{
  "contractName": "ANDROMEDA",
  "abi": [
    {
      "inputs": [
        {
          "internalType": "string",
          "name": "_name",
          "type": "string"
        },
        {
          "internalType": "string",
          "name": "_symbol",
          "type": "string"
        },
        {
          "internalType": "uint256",
          "name": "_decimals",
          "type": "uint256"
        },
        {
          "internalType": "uint256",
          "name": "_supply",
          "type": "uint256"
        },
        {
          "internalType": "uint256",
          "name": "_txFee",
          "type": "uint256"
        },
        {
          "internalType": "uint256",
          "name": "_burnFee",
          "type": "uint256"
        },
        {
          "internalType": "uint256",
          "name": "_charityFee",
          "type": "uint256"
        },
        {
          "internalType": "address",
          "name": "_FeeAddress",
          "type": "address"
        },
        {
          "internalType": "address",
          "name": "tokenOwner",
          "type": "address"
        }
      ],
      "stateMutability": "nonpayable",
      "type": "constructor"
    },
    {
      "anonymous": false,
      "inputs": [
        {
          "indexed": true,
          "internalType": "address",
          "name": "owner",
          "type": "address"
        },
        {
          "indexed": true,
          "internalType": "address",
          "name": "spender",
          "type": "address"
        },
        {
          "indexed": false,
          "internalType": "uint256",
          "name": "value",
          "type": "uint256"
        }
      ],
      "name": "Approval",
      "type": "event"
    },
    {
      "anonymous": false,
      "inputs": [
        {
          "indexed": true,
          "internalType": "address",
          "name": "previousOwner",
          "type": "address"
        },
        {
          "indexed": true,
          "internalType": "address",
          "name": "newOwner",
          "type": "address"
        }
      ],
      "name": "OwnershipTransferred",
      "type": "event"
    },
    {
      "anonymous": false,
      "inputs": [
        {
          "indexed": true,
          "internalType": "address",
          "name": "from",
          "type": "address"
        },
        {
          "indexed": true,
          "internalType": "address",
          "name": "to",
          "type": "address"
        },
        {
          "indexed": false,
          "internalType": "uint256",
          "name": "value",
          "type": "uint256"
        }
      ],
      "name": "Transfer",
      "type": "event"
    },
    {
      "inputs": [],
      "name": "FeeAddress",
      "outputs": [
        {
          "internalType": "address",
          "name": "",
          "type": "address"
        }
      ],
      "stateMutability": "view",
      "type": "function"
    },
    {
      "inputs": [],
      "name": "_BURN_FEE",
      "outputs": [
        {
          "internalType": "uint256",
          "name": "",
          "type": "uint256"
        }
      ],
      "stateMutability": "view",
      "type": "function"
    },
    {
      "inputs": [],
      "name": "_CHARITY_FEE",
      "outputs": [
        {
          "internalType": "uint256",
          "name": "",
          "type": "uint256"
        }
      ],
      "stateMutability": "view",
      "type": "function"
    },
    {
      "inputs": [],
      "name": "_TAX_FEE",
      "outputs": [
        {
          "internalType": "uint256",
          "name": "",
          "type": "uint256"
        }
      ],
      "stateMutability": "view",
      "type": "function"
    },
    {
      "inputs": [],
      "name": "_owner",
      "outputs": [
        {
          "internalType": "address",
          "name": "",
          "type": "address"
        }
      ],
      "stateMutability": "view",
      "type": "function"
    },
    {
      "inputs": [],
      "name": "owner",
      "outputs": [
        {
          "internalType": "address",
          "name": "",
          "type": "address"
        }
      ],
      "stateMutability": "view",
      "type": "function"
    },
    {
      "inputs": [],
      "name": "renounceOwnership",
      "outputs": [],
      "stateMutability": "nonpayable",
      "type": "function"
    },
    {
      "inputs": [
        {
          "internalType": "address",
          "name": "newOwner",
          "type": "address"
        }
      ],
      "name": "transferOwnership",
      "outputs": [],
      "stateMutability": "nonpayable",
      "type": "function"
    },
    {
      "inputs": [],
      "name": "name",
      "outputs": [
        {
          "internalType": "string",
          "name": "",
          "type": "string"
        }
      ],
      "stateMutability": "view",
      "type": "function"
    },
    {
      "inputs": [],
      "name": "symbol",
      "outputs": [
        {
          "internalType": "string",
          "name": "",
          "type": "string"
        }
      ],
      "stateMutability": "view",
      "type": "function"
    },
    {
      "inputs": [],
      "name": "decimals",
      "outputs": [
        {
          "internalType": "uint8",
          "name": "",
          "type": "uint8"
        }
      ],
      "stateMutability": "view",
      "type": "function"
    },
    {
      "inputs": [],
      "name": "totalSupply",
      "outputs": [
        {
          "internalType": "uint256",
          "name": "",
          "type": "uint256"
        }
      ],
      "stateMutability": "view",
      "type": "function"
    },
    {
      "inputs": [
        {
          "internalType": "address",
          "name": "account",
          "type": "address"
        }
      ],
      "name": "balanceOf",
      "outputs": [
        {
          "internalType": "uint256",
          "name": "",
          "type": "uint256"
        }
      ],
      "stateMutability": "view",
      "type": "function"
    },
    {
      "inputs": [
        {
          "internalType": "address",
          "name": "recipient",
          "type": "address"
        },
        {
          "internalType": "uint256",
          "name": "amount",
          "type": "uint256"
        }
      ],
      "name": "transfer",
      "outputs": [
        {
          "internalType": "bool",
          "name": "",
          "type": "bool"
        }
      ],
      "stateMutability": "nonpayable",
      "type": "function"
    },
    {
      "inputs": [
        {
          "internalType": "address",
          "name": "owner",
          "type": "address"
        },
        {
          "internalType": "address",
          "name": "spender",
          "type": "address"
        }
      ],
      "name": "allowance",
      "outputs": [
        {
          "internalType": "uint256",
          "name": "",
          "type": "uint256"
        }
      ],
      "stateMutability": "view",
      "type": "function"
    },
    {
      "inputs": [
        {
          "internalType": "address",
          "name": "spender",
          "type": "address"
        },
        {
          "internalType": "uint256",
          "name": "amount",
          "type": "uint256"
        }
      ],
      "name": "approve",
      "outputs": [
        {
          "internalType": "bool",
          "name": "",
          "type": "bool"
        }
      ],
      "stateMutability": "nonpayable",
      "type": "function"
    },
    {
      "inputs": [
        {
          "internalType": "address",
          "name": "sender",
          "type": "address"
        },
        {
          "internalType": "address",
          "name": "recipient",
          "type": "address"
        },
        {
          "internalType": "uint256",
          "name": "amount",
          "type": "uint256"
        }
      ],
      "name": "transferFrom",
      "outputs": [
        {
          "internalType": "bool",
          "name": "",
          "type": "bool"
        }
      ],
      "stateMutability": "nonpayable",
      "type": "function"
    },
    {
      "inputs": [
        {
          "internalType": "address",
          "name": "spender",
          "type": "address"
        },
        {
          "internalType": "uint256",
          "name": "addedValue",
          "type": "uint256"
        }
      ],
      "name": "increaseAllowance",
      "outputs": [
        {
          "internalType": "bool",
          "name": "",
          "type": "bool"
        }
      ],
      "stateMutability": "nonpayable",
      "type": "function"
    },
    {
      "inputs": [
        {
          "internalType": "address",
          "name": "spender",
          "type": "address"
        },
        {
          "internalType": "uint256",
          "name": "subtractedValue",
          "type": "uint256"
        }
      ],
      "name": "decreaseAllowance",
      "outputs": [
        {
          "internalType": "bool",
          "name": "",
          "type": "bool"
        }
      ],
      "stateMutability": "nonpayable",
      "type": "function"
    },
    {
      "inputs": [
        {
          "internalType": "address",
          "name": "account",
          "type": "address"
        }
      ],
      "name": "isExcluded",
      "outputs": [
        {
          "internalType": "bool",
          "name": "",
          "type": "bool"
        }
      ],
      "stateMutability": "view",
      "type": "function"
    },
    {
      "inputs": [],
      "name": "totalFees",
      "outputs": [
        {
          "internalType": "uint256",
          "name": "",
          "type": "uint256"
        }
      ],
      "stateMutability": "view",
      "type": "function"
    },
    {
      "inputs": [],
      "name": "totalBurn",
      "outputs": [
        {
          "internalType": "uint256",
          "name": "",
          "type": "uint256"
        }
      ],
      "stateMutability": "view",
      "type": "function"
    },
    {
      "inputs": [],
      "name": "totalCharity",
      "outputs": [
        {
          "internalType": "uint256",
          "name": "",
          "type": "uint256"
        }
      ],
      "stateMutability": "view",
      "type": "function"
    },
    {
      "inputs": [
        {
          "internalType": "uint256",
          "name": "tAmount",
          "type": "uint256"
        }
      ],
      "name": "deliver",
      "outputs": [],
      "stateMutability": "nonpayable",
      "type": "function"
    },
    {
      "inputs": [
        {
          "internalType": "uint256",
          "name": "tAmount",
          "type": "uint256"
        },
        {
          "internalType": "bool",
          "name": "deductTransferFee",
          "type": "bool"
        }
      ],
      "name": "reflectionFromToken",
      "outputs": [
        {
          "internalType": "uint256",
          "name": "",
          "type": "uint256"
        }
      ],
      "stateMutability": "view",
      "type": "function"
    },
    {
      "inputs": [
        {
          "internalType": "uint256",
          "name": "rAmount",
          "type": "uint256"
        }
      ],
      "name": "tokenFromReflection",
      "outputs": [
        {
          "internalType": "uint256",
          "name": "",
          "type": "uint256"
        }
      ],
      "stateMutability": "view",
      "type": "function"
    },
    {
      "inputs": [
        {
          "internalType": "address",
          "name": "account",
          "type": "address"
        }
      ],
      "name": "excludeAccount",
      "outputs": [],
      "stateMutability": "nonpayable",
      "type": "function"
    },
    {
      "inputs": [
        {
          "internalType": "address",
          "name": "account",
          "type": "address"
        }
      ],
      "name": "includeAccount",
      "outputs": [],
      "stateMutability": "nonpayable",
      "type": "function"
    },
    {
      "inputs": [
        {
          "internalType": "address",
          "name": "account",
          "type": "address"
        }
      ],
      "name": "setAsCharityAccount",
      "outputs": [],
      "stateMutability": "nonpayable",
      "type": "function"
    },
    {
      "inputs": [
        {
          "internalType": "uint256",
          "name": "_txFee",
          "type": "uint256"
        },
        {
          "internalType": "uint256",
          "name": "_burnFee",
          "type": "uint256"
        },
        {
          "internalType": "uint256",
          "name": "_charityFee",
          "type": "uint256"
        }
      ],
      "name": "updateFee",
      "outputs": [],
      "stateMutability": "nonpayable",
      "type": "function"
    }
  ],
  "bytecode": "0x6080604052600019600a556064600c553480156200001c57600080fd5b5060405162004ec538038062004ec5833981810160405281019062000042919062000556565b88600690805190602001906200005a92919062000269565b5087600790805190602001906200007392919062000269565b5086600881905550600854600a6200008c9190620007f6565b600b81905550600b5486620000a2919062000847565b600d81905550600d54600a54620000ba9190620008d7565b600a54620000c991906200090f565b600e81905550606485620000de919062000847565b601281905550606484620000f3919062000847565b60138190555060648362000108919062000847565b60148190555060125460158190555060135460168190555060145460178190555081600960006101000a81548173ffffffffffffffffffffffffffffffffffffffff021916908373ffffffffffffffffffffffffffffffffffffffff160217905550806000806101000a81548173ffffffffffffffffffffffffffffffffffffffff021916908373ffffffffffffffffffffffffffffffffffffffff160217905550600e54600160008373ffffffffffffffffffffffffffffffffffffffff1673ffffffffffffffffffffffffffffffffffffffff168152602001908152602001600020819055508073ffffffffffffffffffffffffffffffffffffffff16600073ffffffffffffffffffffffffffffffffffffffff167fddf252ad1be2c89b69c2b068fc378daa952ba7f163c4a11628f55a4df523b3ef600d546040516200025291906200095b565b60405180910390a3505050505050505050620009dd565b8280546200027790620009a7565b90600052602060002090601f0160209004810192826200029b5760008555620002e7565b82601f10620002b657805160ff1916838001178555620002e7565b82800160010185558215620002e7579182015b82811115620002e6578251825591602001919060010190620002c9565b5b509050620002f69190620002fa565b5090565b5b8082111562000315576000816000905550600101620002fb565b5090565b6000604051905090565b600080fd5b600080fd5b600080fd5b600080fd5b6000601f19601f8301169050919050565b7f4e487b7100000000000000000000000000000000000000000000000000000000600052604160045260246000fd5b620003828262000337565b810181811067ffffffffffffffff82111715620003a457620003a362000348565b5b80604052505050565b6000620003b962000319565b9050620003c7828262000377565b919050565b600067ffffffffffffffff821115620003ea57620003e962000348565b5b620003f58262000337565b9050602081019050919050565b60005b838110156200042257808201518184015260208101905062000405565b8381111562000432576000848401525b50505050565b60006200044f6200044984620003cc565b620003ad565b9050828152602081018484840111156200046e576200046d62000332565b5b6200047b84828562000402565b509392505050565b600082601f8301126200049b576200049a6200032d565b5b8151620004ad84826020860162000438565b91505092915050565b6000819050919050565b620004cb81620004b6565b8114620004d757600080fd5b50565b600081519050620004eb81620004c0565b92915050565b600073ffffffffffffffffffffffffffffffffffffffff82169050919050565b60006200051e82620004f1565b9050919050565b620005308162000511565b81146200053c57600080fd5b50565b600081519050620005508162000525565b92915050565b60008060008060008060008060006101208a8c0312156200057c576200057b62000323565b5b60008a015167ffffffffffffffff8111156200059d576200059c62000328565b5b620005ab8c828d0162000483565b99505060208a015167ffffffffffffffff811115620005cf57620005ce62000328565b5b620005dd8c828d0162000483565b9850506040620005f08c828d01620004da565b9750506060620006038c828d01620004da565b9650506080620006168c828d01620004da565b95505060a0620006298c828d01620004da565b94505060c06200063c8c828d01620004da565b93505060e06200064f8c828d016200053f565b925050610100620006638c828d016200053f565b9150509295985092959850929598565b7f4e487b7100000000000000000000000000000000000000000000000000000000600052601160045260246000fd5b60008160011c9050919050565b6000808291508390505b60018511156200070157808604811115620006d957620006d862000673565b5b6001851615620006e95780820291505b8081029050620006f985620006a2565b9450620006b9565b94509492505050565b6000826200071c5760019050620007ef565b816200072c5760009050620007ef565b8160018114620007455760028114620007505762000786565b6001915050620007ef565b60ff84111562000765576200076462000673565b5b8360020a9150848211156200077f576200077e62000673565b5b50620007ef565b5060208310610133831016604e8410600b8410161715620007c05782820a905083811115620007ba57620007b962000673565b5b620007ef565b620007cf8484846001620006af565b92509050818404811115620007e957620007e862000673565b5b81810290505b9392505050565b60006200080382620004b6565b91506200081083620004b6565b92506200083f7fffffffffffffffffffffffffffffffffffffffffffffffffffffffffffffffff84846200070a565b905092915050565b60006200085482620004b6565b91506200086183620004b6565b9250817fffffffffffffffffffffffffffffffffffffffffffffffffffffffffffffffff04831182151516156200089d576200089c62000673565b5b828202905092915050565b7f4e487b7100000000000000000000000000000000000000000000000000000000600052601260045260246000fd5b6000620008e482620004b6565b9150620008f183620004b6565b925082620009045762000903620008a8565b5b828206905092915050565b60006200091c82620004b6565b91506200092983620004b6565b9250828210156200093f576200093e62000673565b5b828203905092915050565b6200095581620004b6565b82525050565b60006020820190506200097260008301846200094a565b92915050565b7f4e487b7100000000000000000000000000000000000000000000000000000000600052602260045260246000fd5b60006002820490506001821680620009c057607f821691505b60208210811415620009d757620009d662000978565b5b50919050565b6144d880620009ed6000396000f3fe608060405234801561001057600080fd5b50600436106101da5760003560e01c80637b7e8bac11610104578063b5862428116100a2578063f2cc0c1811610071578063f2cc0c1814610587578063f2fde38b146105a3578063f84354f1146105bf578063fc061a4f146105db576101da565b8063b5862428146104eb578063cba0e99614610509578063d608b3b214610539578063dd62ed3e14610557576101da565b8063a457c2d7116100de578063a457c2d71461044f578063a9059cbb1461047f578063ae9dd5e0146104af578063b2bdfa7b146104cd576101da565b80637b7e8bac146103f55780638da5cb5b1461041357806395d89b4114610431576101da565b8063395093511161017c578063457bdf6c1161014b578063457bdf6c1461038157806370a082311461039d578063715018a6146103cd57806377ef7993146103d7576101da565b806339509351146102e75780633bd5d173146103175780633c9f861d146103335780634549b03914610351576101da565b806318160ddd116101b857806318160ddd1461024b57806323b872dd146102695780632d83811914610299578063313ce567146102c9576101da565b806306fdde03146101df578063095ea7b3146101fd57806313114a9d1461022d575b600080fd5b6101e76105f7565b6040516101f49190613730565b60405180910390f35b610217600480360381019061021291906137eb565b610689565b6040516102249190613846565b60405180910390f35b6102356106a7565b6040516102429190613870565b60405180910390f35b6102536106b1565b6040516102609190613870565b60405180910390f35b610283600480360381019061027e919061388b565b6106bb565b6040516102909190613846565b60405180910390f35b6102b360048036038101906102ae91906138de565b610794565b6040516102c09190613870565b60405180910390f35b6102d1610802565b6040516102de9190613927565b60405180910390f35b61030160048036038101906102fc91906137eb565b61080c565b60405161030e9190613846565b60405180910390f35b610331600480360381019061032c91906138de565b6108bf565b005b61033b610a3b565b6040516103489190613870565b60405180910390f35b61036b6004803603810190610366919061396e565b610a45565b6040516103789190613870565b60405180910390f35b61039b600480360381019061039691906139ae565b610acb565b005b6103b760048036038101906103b291906139ae565b610ba4565b6040516103c49190613870565b60405180910390f35b6103d5610c8f565b005b6103df610de2565b6040516103ec9190613870565b60405180910390f35b6103fd610de8565b60405161040a91906139ea565b60405180910390f35b61041b610e0e565b60405161042891906139ea565b60405180910390f35b610439610e37565b6040516104469190613730565b60405180910390f35b610469600480360381019061046491906137eb565b610ec9565b6040516104769190613846565b60405180910390f35b610499600480360381019061049491906137eb565b610f96565b6040516104a69190613846565b60405180910390f35b6104b7610fb4565b6040516104c49190613870565b60405180910390f35b6104d5610fba565b6040516104e291906139ea565b60405180910390f35b6104f3610fde565b6040516105009190613870565b60405180910390f35b610523600480360381019061051e91906139ae565b610fe4565b6040516105309190613846565b60405180910390f35b61054161103a565b60405161054e9190613870565b60405180910390f35b610571600480360381019061056c9190613a05565b611044565b60405161057e9190613870565b60405180910390f35b6105a1600480360381019061059c91906139ae565b6110cb565b005b6105bd60048036038101906105b891906139ae565b61137f565b005b6105d960048036038101906105d491906139ae565b611541565b005b6105f560048036038101906105f09190613a45565b611890565b005b60606006805461060690613ac7565b80601f016020809104026020016040519081016040528092919081815260200182805461063290613ac7565b801561067f5780601f106106545761010080835404028352916020019161067f565b820191906000526020600020905b81548152906001019060200180831161066257829003601f168201915b5050505050905090565b600061069d6106966119a3565b84846119ab565b6001905092915050565b6000600f54905090565b6000600d54905090565b60006106c8848484611b76565b610789846106d46119a3565b610784856040518060600160405280602a8152602001614479602a9139600360008b73ffffffffffffffffffffffffffffffffffffffff1673ffffffffffffffffffffffffffffffffffffffff168152602001908152602001600020600061073a6119a3565b73ffffffffffffffffffffffffffffffffffffffff1673ffffffffffffffffffffffffffffffffffffffff168152602001908152602001600020546120b79092919063ffffffff16565b6119ab565b600190509392505050565b6000600e548211156107db576040517f08c379a00000000000000000000000000000000000000000000000000000000081526004016107d290613b6b565b60405180910390fd5b60006107e561211b565b90506107fa818461214690919063ffffffff16565b915050919050565b6000600854905090565b60006108b56108196119a3565b846108b0856003600061082a6119a3565b73ffffffffffffffffffffffffffffffffffffffff1673ffffffffffffffffffffffffffffffffffffffff16815260200190815260200160002060008973ffffffffffffffffffffffffffffffffffffffff1673ffffffffffffffffffffffffffffffffffffffff1681526020019081526020016000205461219090919063ffffffff16565b6119ab565b6001905092915050565b60006108c96119a3565b9050600460008273ffffffffffffffffffffffffffffffffffffffff1673ffffffffffffffffffffffffffffffffffffffff16815260200190815260200160002060009054906101000a900460ff1615610958576040517f08c379a000000000000000000000000000000000000000000000000000000000815260040161094f90613bfd565b60405180910390fd5b6000610963836121ee565b50505050505090506109bd81600160008573ffffffffffffffffffffffffffffffffffffffff1673ffffffffffffffffffffffffffffffffffffffff1681526020019081526020016000205461227c90919063ffffffff16565b600160008473ffffffffffffffffffffffffffffffffffffffff1673ffffffffffffffffffffffffffffffffffffffff16815260200190815260200160002081905550610a1581600e5461227c90919063ffffffff16565b600e81905550610a3083600f5461219090919063ffffffff16565b600f81905550505050565b6000601054905090565b6000600d54831115610a8c576040517f08c379a0000000000000000000000000000000000000000000000000000000008152600401610a8390613c69565b60405180910390fd5b81610aad576000610a9c846121ee565b505050505050905080915050610ac5565b6000610ab8846121ee565b5050505050915050809150505b92915050565b610ad36119a3565b73ffffffffffffffffffffffffffffffffffffffff1660008054906101000a900473ffffffffffffffffffffffffffffffffffffffff1673ffffffffffffffffffffffffffffffffffffffff1614610b60576040517f08c379a0000000000000000000000000000000000000000000000000000000008152600401610b5790613cd5565b60405180910390fd5b80600960006101000a81548173ffffffffffffffffffffffffffffffffffffffff021916908373ffffffffffffffffffffffffffffffffffffffff16021790555050565b6000600460008373ffffffffffffffffffffffffffffffffffffffff1673ffffffffffffffffffffffffffffffffffffffff16815260200190815260200160002060009054906101000a900460ff1615610c3f57600260008373ffffffffffffffffffffffffffffffffffffffff1673ffffffffffffffffffffffffffffffffffffffff168152602001908152602001600020549050610c8a565b610c87600160008473ffffffffffffffffffffffffffffffffffffffff1673ffffffffffffffffffffffffffffffffffffffff16815260200190815260200160002054610794565b90505b919050565b610c976119a3565b73ffffffffffffffffffffffffffffffffffffffff1660008054906101000a900473ffffffffffffffffffffffffffffffffffffffff1673ffffffffffffffffffffffffffffffffffffffff1614610d24576040517f08c379a0000000000000000000000000000000000000000000000000000000008152600401610d1b90613cd5565b60405180910390fd5b600073ffffffffffffffffffffffffffffffffffffffff1660008054906101000a900473ffffffffffffffffffffffffffffffffffffffff1673ffffffffffffffffffffffffffffffffffffffff167f8be0079c531659141344cd1fd0a4f28419497f9722a3daafe3b4186f6b6457e060405160405180910390a360008060006101000a81548173ffffffffffffffffffffffffffffffffffffffff021916908373ffffffffffffffffffffffffffffffffffffffff160217905550565b60135481565b600960009054906101000a900473ffffffffffffffffffffffffffffffffffffffff1681565b60008060009054906101000a900473ffffffffffffffffffffffffffffffffffffffff16905090565b606060078054610e4690613ac7565b80601f0160208091040260200160405190810160405280929190818152602001828054610e7290613ac7565b8015610ebf5780601f10610e9457610100808354040283529160200191610ebf565b820191906000526020600020905b815481529060010190602001808311610ea257829003601f168201915b5050505050905090565b6000610f8c610ed66119a3565b84610f87856040518060600160405280602781526020016144526027913960036000610f006119a3565b73ffffffffffffffffffffffffffffffffffffffff1673ffffffffffffffffffffffffffffffffffffffff16815260200190815260200160002060008a73ffffffffffffffffffffffffffffffffffffffff1673ffffffffffffffffffffffffffffffffffffffff168152602001908152602001600020546120b79092919063ffffffff16565b6119ab565b6001905092915050565b6000610faa610fa36119a3565b8484611b76565b6001905092915050565b60145481565b60008054906101000a900473ffffffffffffffffffffffffffffffffffffffff1681565b60125481565b6000600460008373ffffffffffffffffffffffffffffffffffffffff1673ffffffffffffffffffffffffffffffffffffffff16815260200190815260200160002060009054906101000a900460ff169050919050565b6000601154905090565b6000600360008473ffffffffffffffffffffffffffffffffffffffff1673ffffffffffffffffffffffffffffffffffffffff16815260200190815260200160002060008373ffffffffffffffffffffffffffffffffffffffff1673ffffffffffffffffffffffffffffffffffffffff16815260200190815260200160002054905092915050565b6110d36119a3565b73ffffffffffffffffffffffffffffffffffffffff1660008054906101000a900473ffffffffffffffffffffffffffffffffffffffff1673ffffffffffffffffffffffffffffffffffffffff1614611160576040517f08c379a000000000000000000000000000000000000000000000000000000000815260040161115790613cd5565b60405180910390fd5b600460008273ffffffffffffffffffffffffffffffffffffffff1673ffffffffffffffffffffffffffffffffffffffff16815260200190815260200160002060009054906101000a900460ff16156111ed576040517f08c379a00000000000000000000000000000000000000000000000000000000081526004016111e490613d41565b60405180910390fd5b6000600160008373ffffffffffffffffffffffffffffffffffffffff1673ffffffffffffffffffffffffffffffffffffffff1681526020019081526020016000205411156112c15761127d600160008373ffffffffffffffffffffffffffffffffffffffff1673ffffffffffffffffffffffffffffffffffffffff16815260200190815260200160002054610794565b600260008373ffffffffffffffffffffffffffffffffffffffff1673ffffffffffffffffffffffffffffffffffffffff168152602001908152602001600020819055505b6001600460008373ffffffffffffffffffffffffffffffffffffffff1673ffffffffffffffffffffffffffffffffffffffff16815260200190815260200160002060006101000a81548160ff0219169083151502179055506005819080600181540180825580915050600190039060005260206000200160009091909190916101000a81548173ffffffffffffffffffffffffffffffffffffffff021916908373ffffffffffffffffffffffffffffffffffffffff16021790555050565b6113876119a3565b73ffffffffffffffffffffffffffffffffffffffff1660008054906101000a900473ffffffffffffffffffffffffffffffffffffffff1673ffffffffffffffffffffffffffffffffffffffff1614611414576040517f08c379a000000000000000000000000000000000000000000000000000000000815260040161140b90613cd5565b60405180910390fd5b600073ffffffffffffffffffffffffffffffffffffffff168173ffffffffffffffffffffffffffffffffffffffff161415611484576040517f08c379a000000000000000000000000000000000000000000000000000000000815260040161147b90613dd3565b60405180910390fd5b8073ffffffffffffffffffffffffffffffffffffffff1660008054906101000a900473ffffffffffffffffffffffffffffffffffffffff1673ffffffffffffffffffffffffffffffffffffffff167f8be0079c531659141344cd1fd0a4f28419497f9722a3daafe3b4186f6b6457e060405160405180910390a3806000806101000a81548173ffffffffffffffffffffffffffffffffffffffff021916908373ffffffffffffffffffffffffffffffffffffffff16021790555050565b6115496119a3565b73ffffffffffffffffffffffffffffffffffffffff1660008054906101000a900473ffffffffffffffffffffffffffffffffffffffff1673ffffffffffffffffffffffffffffffffffffffff16146115d6576040517f08c379a00000000000000000000000000000000000000000000000000000000081526004016115cd90613cd5565b60405180910390fd5b600460008273ffffffffffffffffffffffffffffffffffffffff1673ffffffffffffffffffffffffffffffffffffffff16815260200190815260200160002060009054906101000a900460ff16611662576040517f08c379a000000000000000000000000000000000000000000000000000000000815260040161165990613e3f565b60405180910390fd5b60005b60058054905081101561188c578173ffffffffffffffffffffffffffffffffffffffff166005828154811061169d5761169c613e5f565b5b9060005260206000200160009054906101000a900473ffffffffffffffffffffffffffffffffffffffff1673ffffffffffffffffffffffffffffffffffffffff16141561187957600560016005805490506116f89190613ebd565b8154811061170957611708613e5f565b5b9060005260206000200160009054906101000a900473ffffffffffffffffffffffffffffffffffffffff166005828154811061174857611747613e5f565b5b9060005260206000200160006101000a81548173ffffffffffffffffffffffffffffffffffffffff021916908373ffffffffffffffffffffffffffffffffffffffff1602179055506000600260008473ffffffffffffffffffffffffffffffffffffffff1673ffffffffffffffffffffffffffffffffffffffff168152602001908152602001600020819055506000600460008473ffffffffffffffffffffffffffffffffffffffff1673ffffffffffffffffffffffffffffffffffffffff16815260200190815260200160002060006101000a81548160ff021916908315150217905550600580548061183f5761183e613ef1565b5b6001900381819060005260206000200160006101000a81549073ffffffffffffffffffffffffffffffffffffffff0219169055905561188c565b808061188490613f20565b915050611665565b5050565b6118986119a3565b73ffffffffffffffffffffffffffffffffffffffff1660008054906101000a900473ffffffffffffffffffffffffffffffffffffffff1673ffffffffffffffffffffffffffffffffffffffff1614611925576040517f08c379a000000000000000000000000000000000000000000000000000000000815260040161191c90613cd5565b60405180910390fd5b6064831080156119355750606482105b80156119415750606481105b61194a57600080fd5b6064836119579190613f69565b60128190555060648261196a9190613f69565b60138190555060648161197d9190613f69565b601481905550601254601581905550601354601681905550601454601781905550505050565b600033905090565b600073ffffffffffffffffffffffffffffffffffffffff168373ffffffffffffffffffffffffffffffffffffffff161415611a1b576040517f08c379a0000000000000000000000000000000000000000000000000000000008152600401611a1290614035565b60405180910390fd5b600073ffffffffffffffffffffffffffffffffffffffff168273ffffffffffffffffffffffffffffffffffffffff161415611a8b576040517f08c379a0000000000000000000000000000000000000000000000000000000008152600401611a82906140c7565b60405180910390fd5b80600360008573ffffffffffffffffffffffffffffffffffffffff1673ffffffffffffffffffffffffffffffffffffffff16815260200190815260200160002060008473ffffffffffffffffffffffffffffffffffffffff1673ffffffffffffffffffffffffffffffffffffffff168152602001908152602001600020819055508173ffffffffffffffffffffffffffffffffffffffff168373ffffffffffffffffffffffffffffffffffffffff167f8c5be1e5ebec7d5bd14f71427d1e84f3dd0314c0f7b2291e5b200ac8c7c3b92583604051611b699190613870565b60405180910390a3505050565b600073ffffffffffffffffffffffffffffffffffffffff168373ffffffffffffffffffffffffffffffffffffffff161415611be6576040517f08c379a0000000000000000000000000000000000000000000000000000000008152600401611bdd90614159565b60405180910390fd5b600073ffffffffffffffffffffffffffffffffffffffff168273ffffffffffffffffffffffffffffffffffffffff161415611c56576040517f08c379a0000000000000000000000000000000000000000000000000000000008152600401611c4d906141eb565b60405180910390fd5b60008111611c99576040517f08c379a0000000000000000000000000000000000000000000000000000000008152600401611c909061427d565b60405180910390fd5b6000600190508373ffffffffffffffffffffffffffffffffffffffff16600960009054906101000a900473ffffffffffffffffffffffffffffffffffffffff1673ffffffffffffffffffffffffffffffffffffffff161480611d4857508273ffffffffffffffffffffffffffffffffffffffff16600960009054906101000a900473ffffffffffffffffffffffffffffffffffffffff1673ffffffffffffffffffffffffffffffffffffffff16145b80611d9c5750600460008473ffffffffffffffffffffffffffffffffffffffff1673ffffffffffffffffffffffffffffffffffffffff16815260200190815260200160002060009054906101000a900460ff165b15611da657600090505b80611db457611db36122c6565b5b600460008573ffffffffffffffffffffffffffffffffffffffff1673ffffffffffffffffffffffffffffffffffffffff16815260200190815260200160002060009054906101000a900460ff168015611e575750600460008473ffffffffffffffffffffffffffffffffffffffff1673ffffffffffffffffffffffffffffffffffffffff16815260200190815260200160002060009054906101000a900460ff16155b15611e6c57611e67848484612328565b6120a3565b600460008573ffffffffffffffffffffffffffffffffffffffff1673ffffffffffffffffffffffffffffffffffffffff16815260200190815260200160002060009054906101000a900460ff16158015611f0f5750600460008473ffffffffffffffffffffffffffffffffffffffff1673ffffffffffffffffffffffffffffffffffffffff16815260200190815260200160002060009054906101000a900460ff165b15611f2457611f1f848484612404565b6120a2565b600460008573ffffffffffffffffffffffffffffffffffffffff1673ffffffffffffffffffffffffffffffffffffffff16815260200190815260200160002060009054906101000a900460ff16158015611fc85750600460008473ffffffffffffffffffffffffffffffffffffffff1673ffffffffffffffffffffffffffffffffffffffff16815260200190815260200160002060009054906101000a900460ff16155b15611fdd57611fd88484846124e0565b6120a1565b600460008573ffffffffffffffffffffffffffffffffffffffff1673ffffffffffffffffffffffffffffffffffffffff16815260200190815260200160002060009054906101000a900460ff16801561207f5750600460008473ffffffffffffffffffffffffffffffffffffffff1673ffffffffffffffffffffffffffffffffffffffff16815260200190815260200160002060009054906101000a900460ff165b156120945761208f8484846125bb565b6120a0565b61209f8484846124e0565b5b5b5b5b806120b1576120b0612698565b5b50505050565b60008383111582906120ff576040517f08c379a00000000000000000000000000000000000000000000000000000000081526004016120f69190613730565b60405180910390fd5b506000838561210e9190613ebd565b9050809150509392505050565b60008060006121286126b5565b9150915061213f818361214690919063ffffffff16565b9250505090565b600061218883836040518060400160405280601a81526020017f536166654d6174683a206469766973696f6e206279207a65726f000000000000815250612968565b905092915050565b600080828461219f919061429d565b9050838110156121e4576040517f08c379a00000000000000000000000000000000000000000000000000000000081526004016121db9061433f565b60405180910390fd5b8091505092915050565b60008060008060008060008060008061220f8b6012546013546014546129cb565b92509250925060006122238c858585612a9f565b9050600061222f61211b565b905060008061223f8f8885612ae2565b9150915060006122528383898988612b23565b9050828183878b8b8b9e509e509e509e509e509e509e505050505050505050919395979092949650565b60006122be83836040518060400160405280601e81526020017f536166654d6174683a207375627472616374696f6e206f766572666c6f7700008152506120b7565b905092915050565b60006012541480156122da57506000601354145b80156122e857506000601454145b156122f257612326565b6012546015819055506013546016819055506014546017819055506000601281905550600060138190555060006014819055505b565b600061233261211b565b90506000806000806000806000612348896121ee565b9650965096509650965096509650600061236b8984612b9c90919063ffffffff16565b905061237a8c8c8c8b8b612c17565b612384828d612ddd565b612391868286868661303f565b8a73ffffffffffffffffffffffffffffffffffffffff168c73ffffffffffffffffffffffffffffffffffffffff167fddf252ad1be2c89b69c2b068fc378daa952ba7f163c4a11628f55a4df523b3ef876040516123ee9190613870565b60405180910390a3505050505050505050505050565b600061240e61211b565b90506000806000806000806000612424896121ee565b965096509650965096509650965060006124478984612b9c90919063ffffffff16565b90506124568c8c878b8b613145565b612460828d612ddd565b61246d868286868661303f565b8a73ffffffffffffffffffffffffffffffffffffffff168c73ffffffffffffffffffffffffffffffffffffffff167fddf252ad1be2c89b69c2b068fc378daa952ba7f163c4a11628f55a4df523b3ef876040516124ca9190613870565b60405180910390a3505050505050505050505050565b60006124ea61211b565b90506000806000806000806000612500896121ee565b965096509650965096509650965060006125238984612b9c90919063ffffffff16565b90506125318c8c8a8a61330b565b61253b828d612ddd565b612548868286868661303f565b8a73ffffffffffffffffffffffffffffffffffffffff168c73ffffffffffffffffffffffffffffffffffffffff167fddf252ad1be2c89b69c2b068fc378daa952ba7f163c4a11628f55a4df523b3ef876040516125a59190613870565b60405180910390a3505050505050505050505050565b60006125c561211b565b905060008060008060008060006125db896121ee565b965096509650965096509650965060006125fe8984612b9c90919063ffffffff16565b905061260e8c8c8c8b898c61343b565b612618828d612ddd565b612625868286868661303f565b8a73ffffffffffffffffffffffffffffffffffffffff168c73ffffffffffffffffffffffffffffffffffffffff167fddf252ad1be2c89b69c2b068fc378daa952ba7f163c4a11628f55a4df523b3ef876040516126829190613870565b60405180910390a3505050505050505050505050565b601554601281905550601654601381905550601754601481905550565b6000806000600e5490506000600d54905060005b60058054905081101561292b578260016000600584815481106126ef576126ee613e5f565b5b9060005260206000200160009054906101000a900473ffffffffffffffffffffffffffffffffffffffff1673ffffffffffffffffffffffffffffffffffffffff1673ffffffffffffffffffffffffffffffffffffffff1681526020019081526020016000205411806127dd575081600260006005848154811061277557612774613e5f565b5b9060005260206000200160009054906101000a900473ffffffffffffffffffffffffffffffffffffffff1673ffffffffffffffffffffffffffffffffffffffff1673ffffffffffffffffffffffffffffffffffffffff16815260200190815260200160002054115b156127f457600e54600d5494509450505050612964565b612884600160006005848154811061280f5761280e613e5f565b5b9060005260206000200160009054906101000a900473ffffffffffffffffffffffffffffffffffffffff1673ffffffffffffffffffffffffffffffffffffffff1673ffffffffffffffffffffffffffffffffffffffff168152602001908152602001600020548461227c90919063ffffffff16565b925061291660026000600584815481106128a1576128a0613e5f565b5b9060005260206000200160009054906101000a900473ffffffffffffffffffffffffffffffffffffffff1673ffffffffffffffffffffffffffffffffffffffff1673ffffffffffffffffffffffffffffffffffffffff168152602001908152602001600020548361227c90919063ffffffff16565b9150808061292390613f20565b9150506126c9565b50612943600d54600e5461214690919063ffffffff16565b82101561295b57600e54600d54935093505050612964565b81819350935050505b9091565b600080831182906129af576040517f08c379a00000000000000000000000000000000000000000000000000000000081526004016129a69190613730565b60405180910390fd5b50600083856129be919061438e565b9050809150509392505050565b600080600080612a0b60646129fd600c546129ef8b8d612b9c90919063ffffffff16565b61214690919063ffffffff16565b61214690919063ffffffff16565b90506000612a496064612a3b600c54612a2d8b8e612b9c90919063ffffffff16565b61214690919063ffffffff16565b61214690919063ffffffff16565b90506000612a876064612a79600c54612a6b8b8f612b9c90919063ffffffff16565b61214690919063ffffffff16565b61214690919063ffffffff16565b90508282829550955095505050509450945094915050565b6000612ad882612aca85612abc888a61227c90919063ffffffff16565b61227c90919063ffffffff16565b61227c90919063ffffffff16565b9050949350505050565b6000806000612afa8487612b9c90919063ffffffff16565b90506000612b118587612b9c90919063ffffffff16565b90508181935093505050935093915050565b600080612b398386612b9c90919063ffffffff16565b90506000612b508486612b9c90919063ffffffff16565b90506000612b8b82612b7d85612b6f8c8e61227c90919063ffffffff16565b61227c90919063ffffffff16565b61227c90919063ffffffff16565b905080935050505095945050505050565b600080831415612baf5760009050612c11565b60008284612bbd9190613f69565b9050828482612bcc919061438e565b14612c0c576040517f08c379a0000000000000000000000000000000000000000000000000000000008152600401612c0390614431565b60405180910390fd5b809150505b92915050565b612c6983600260008873ffffffffffffffffffffffffffffffffffffffff1673ffffffffffffffffffffffffffffffffffffffff1681526020019081526020016000205461227c90919063ffffffff16565b600260008773ffffffffffffffffffffffffffffffffffffffff1673ffffffffffffffffffffffffffffffffffffffff16815260200190815260200160002081905550612cfe82600160008873ffffffffffffffffffffffffffffffffffffffff1673ffffffffffffffffffffffffffffffffffffffff1681526020019081526020016000205461227c90919063ffffffff16565b600160008773ffffffffffffffffffffffffffffffffffffffff1673ffffffffffffffffffffffffffffffffffffffff16815260200190815260200160002081905550612d9381600160008773ffffffffffffffffffffffffffffffffffffffff1673ffffffffffffffffffffffffffffffffffffffff1681526020019081526020016000205461219090919063ffffffff16565b600160008673ffffffffffffffffffffffffffffffffffffffff1673ffffffffffffffffffffffffffffffffffffffff168152602001908152602001600020819055505050505050565b6000612de761211b565b90506000612dfe8285612b9c90919063ffffffff16565b9050612e748160016000600960009054906101000a900473ffffffffffffffffffffffffffffffffffffffff1673ffffffffffffffffffffffffffffffffffffffff1673ffffffffffffffffffffffffffffffffffffffff1681526020019081526020016000205461219090919063ffffffff16565b60016000600960009054906101000a900473ffffffffffffffffffffffffffffffffffffffff1673ffffffffffffffffffffffffffffffffffffffff1673ffffffffffffffffffffffffffffffffffffffff16815260200190815260200160002081905550612f4d8460026000600960009054906101000a900473ffffffffffffffffffffffffffffffffffffffff1673ffffffffffffffffffffffffffffffffffffffff1673ffffffffffffffffffffffffffffffffffffffff1681526020019081526020016000205461219090919063ffffffff16565b60026000600960009054906101000a900473ffffffffffffffffffffffffffffffffffffffff1673ffffffffffffffffffffffffffffffffffffffff1673ffffffffffffffffffffffffffffffffffffffff16815260200190815260200160002081905550600960009054906101000a900473ffffffffffffffffffffffffffffffffffffffff1673ffffffffffffffffffffffffffffffffffffffff168373ffffffffffffffffffffffffffffffffffffffff167fddf252ad1be2c89b69c2b068fc378daa952ba7f163c4a11628f55a4df523b3ef866040516130319190613870565b60405180910390a350505050565b6130668461305887600e5461227c90919063ffffffff16565b61227c90919063ffffffff16565b600e8190555061308183600f5461219090919063ffffffff16565b600f8190555061309c8260105461219090919063ffffffff16565b6010819055506130b78160115461219090919063ffffffff16565b6011819055506130d282600d5461227c90919063ffffffff16565b600d81905550600073ffffffffffffffffffffffffffffffffffffffff163073ffffffffffffffffffffffffffffffffffffffff167fddf252ad1be2c89b69c2b068fc378daa952ba7f163c4a11628f55a4df523b3ef846040516131369190613870565b60405180910390a35050505050565b61319782600160008873ffffffffffffffffffffffffffffffffffffffff1673ffffffffffffffffffffffffffffffffffffffff1681526020019081526020016000205461227c90919063ffffffff16565b600160008773ffffffffffffffffffffffffffffffffffffffff1673ffffffffffffffffffffffffffffffffffffffff1681526020019081526020016000208190555061322c83600260008773ffffffffffffffffffffffffffffffffffffffff1673ffffffffffffffffffffffffffffffffffffffff1681526020019081526020016000205461219090919063ffffffff16565b600260008673ffffffffffffffffffffffffffffffffffffffff1673ffffffffffffffffffffffffffffffffffffffff168152602001908152602001600020819055506132c181600160008773ffffffffffffffffffffffffffffffffffffffff1673ffffffffffffffffffffffffffffffffffffffff1681526020019081526020016000205461219090919063ffffffff16565b600160008673ffffffffffffffffffffffffffffffffffffffff1673ffffffffffffffffffffffffffffffffffffffff168152602001908152602001600020819055505050505050565b61335d82600160008773ffffffffffffffffffffffffffffffffffffffff1673ffffffffffffffffffffffffffffffffffffffff1681526020019081526020016000205461227c90919063ffffffff16565b600160008673ffffffffffffffffffffffffffffffffffffffff1673ffffffffffffffffffffffffffffffffffffffff168152602001908152602001600020819055506133f281600160008673ffffffffffffffffffffffffffffffffffffffff1673ffffffffffffffffffffffffffffffffffffffff1681526020019081526020016000205461219090919063ffffffff16565b600160008573ffffffffffffffffffffffffffffffffffffffff1673ffffffffffffffffffffffffffffffffffffffff1681526020019081526020016000208190555050505050565b61348d84600260008973ffffffffffffffffffffffffffffffffffffffff1673ffffffffffffffffffffffffffffffffffffffff1681526020019081526020016000205461227c90919063ffffffff16565b600260008873ffffffffffffffffffffffffffffffffffffffff1673ffffffffffffffffffffffffffffffffffffffff1681526020019081526020016000208190555061352283600160008973ffffffffffffffffffffffffffffffffffffffff1673ffffffffffffffffffffffffffffffffffffffff1681526020019081526020016000205461227c90919063ffffffff16565b600160008873ffffffffffffffffffffffffffffffffffffffff1673ffffffffffffffffffffffffffffffffffffffff168152602001908152602001600020819055506135b782600260008873ffffffffffffffffffffffffffffffffffffffff1673ffffffffffffffffffffffffffffffffffffffff1681526020019081526020016000205461219090919063ffffffff16565b600260008773ffffffffffffffffffffffffffffffffffffffff1673ffffffffffffffffffffffffffffffffffffffff1681526020019081526020016000208190555061364c81600160008873ffffffffffffffffffffffffffffffffffffffff1673ffffffffffffffffffffffffffffffffffffffff1681526020019081526020016000205461219090919063ffffffff16565b600160008773ffffffffffffffffffffffffffffffffffffffff1673ffffffffffffffffffffffffffffffffffffffff16815260200190815260200160002081905550505050505050565b600081519050919050565b600082825260208201905092915050565b60005b838110156136d15780820151818401526020810190506136b6565b838111156136e0576000848401525b50505050565b6000601f19601f8301169050919050565b600061370282613697565b61370c81856136a2565b935061371c8185602086016136b3565b613725816136e6565b840191505092915050565b6000602082019050818103600083015261374a81846136f7565b905092915050565b600080fd5b600073ffffffffffffffffffffffffffffffffffffffff82169050919050565b600061378282613757565b9050919050565b61379281613777565b811461379d57600080fd5b50565b6000813590506137af81613789565b92915050565b6000819050919050565b6137c8816137b5565b81146137d357600080fd5b50565b6000813590506137e5816137bf565b92915050565b6000806040838503121561380257613801613752565b5b6000613810858286016137a0565b9250506020613821858286016137d6565b9150509250929050565b60008115159050919050565b6138408161382b565b82525050565b600060208201905061385b6000830184613837565b92915050565b61386a816137b5565b82525050565b60006020820190506138856000830184613861565b92915050565b6000806000606084860312156138a4576138a3613752565b5b60006138b2868287016137a0565b93505060206138c3868287016137a0565b92505060406138d4868287016137d6565b9150509250925092565b6000602082840312156138f4576138f3613752565b5b6000613902848285016137d6565b91505092915050565b600060ff82169050919050565b6139218161390b565b82525050565b600060208201905061393c6000830184613918565b92915050565b61394b8161382b565b811461395657600080fd5b50565b60008135905061396881613942565b92915050565b6000806040838503121561398557613984613752565b5b6000613993858286016137d6565b92505060206139a485828601613959565b9150509250929050565b6000602082840312156139c4576139c3613752565b5b60006139d2848285016137a0565b91505092915050565b6139e481613777565b82525050565b60006020820190506139ff60008301846139db565b92915050565b60008060408385031215613a1c57613a1b613752565b5b6000613a2a858286016137a0565b9250506020613a3b858286016137a0565b9150509250929050565b600080600060608486031215613a5e57613a5d613752565b5b6000613a6c868287016137d6565b9350506020613a7d868287016137d6565b9250506040613a8e868287016137d6565b9150509250925092565b7f4e487b7100000000000000000000000000000000000000000000000000000000600052602260045260246000fd5b60006002820490506001821680613adf57607f821691505b60208210811415613af357613af2613a98565b5b50919050565b7f416d6f756e74206d757374206265206c657373207468616e20746f74616c207260008201527f65666c656374696f6e7300000000000000000000000000000000000000000000602082015250565b6000613b55602a836136a2565b9150613b6082613af9565b604082019050919050565b60006020820190508181036000830152613b8481613b48565b9050919050565b7f4578636c75646564206164647265737365732063616e6e6f742063616c6c207460008201527f6869732066756e6374696f6e0000000000000000000000000000000000000000602082015250565b6000613be7602c836136a2565b9150613bf282613b8b565b604082019050919050565b60006020820190508181036000830152613c1681613bda565b9050919050565b7f416d6f756e74206d757374206265206c657373207468616e20737570706c7900600082015250565b6000613c53601f836136a2565b9150613c5e82613c1d565b602082019050919050565b60006020820190508181036000830152613c8281613c46565b9050919050565b7f4f776e61626c653a2063616c6c6572206973206e6f7420746865206f776e6572600082015250565b6000613cbf6020836136a2565b9150613cca82613c89565b602082019050919050565b60006020820190508181036000830152613cee81613cb2565b9050919050565b7f4163636f756e7420697320616c7265616479206578636c756465640000000000600082015250565b6000613d2b601b836136a2565b9150613d3682613cf5565b602082019050919050565b60006020820190508181036000830152613d5a81613d1e565b9050919050565b7f4f776e61626c653a206e6577206f776e657220697320746865207a65726f206160008201527f6464726573730000000000000000000000000000000000000000000000000000602082015250565b6000613dbd6026836136a2565b9150613dc882613d61565b604082019050919050565b60006020820190508181036000830152613dec81613db0565b9050919050565b7f4163636f756e7420697320616c726561647920696e636c756465640000000000600082015250565b6000613e29601b836136a2565b9150613e3482613df3565b602082019050919050565b60006020820190508181036000830152613e5881613e1c565b9050919050565b7f4e487b7100000000000000000000000000000000000000000000000000000000600052603260045260246000fd5b7f4e487b7100000000000000000000000000000000000000000000000000000000600052601160045260246000fd5b6000613ec8826137b5565b9150613ed3836137b5565b925082821015613ee657613ee5613e8e565b5b828203905092915050565b7f4e487b7100000000000000000000000000000000000000000000000000000000600052603160045260246000fd5b6000613f2b826137b5565b91507fffffffffffffffffffffffffffffffffffffffffffffffffffffffffffffffff821415613f5e57613f5d613e8e565b5b600182019050919050565b6000613f74826137b5565b9150613f7f836137b5565b9250817fffffffffffffffffffffffffffffffffffffffffffffffffffffffffffffffff0483118215151615613fb857613fb7613e8e565b5b828202905092915050565b7f544f4b454e32303a20617070726f76652066726f6d20746865207a65726f206160008201527f6464726573730000000000000000000000000000000000000000000000000000602082015250565b600061401f6026836136a2565b915061402a82613fc3565b604082019050919050565b6000602082019050818103600083015261404e81614012565b9050919050565b7f544f4b454e32303a20617070726f766520746f20746865207a65726f2061646460008201527f7265737300000000000000000000000000000000000000000000000000000000602082015250565b60006140b16024836136a2565b91506140bc82614055565b604082019050919050565b600060208201905081810360008301526140e0816140a4565b9050919050565b7f544f4b454e32303a207472616e736665722066726f6d20746865207a65726f2060008201527f6164647265737300000000000000000000000000000000000000000000000000602082015250565b60006141436027836136a2565b915061414e826140e7565b604082019050919050565b6000602082019050818103600083015261417281614136565b9050919050565b7f544f4b454e32303a207472616e7366657220746f20746865207a65726f20616460008201527f6472657373000000000000000000000000000000000000000000000000000000602082015250565b60006141d56025836136a2565b91506141e082614179565b604082019050919050565b60006020820190508181036000830152614204816141c8565b9050919050565b7f5472616e7366657220616d6f756e74206d75737420626520677265617465722060008201527f7468616e207a65726f0000000000000000000000000000000000000000000000602082015250565b60006142676029836136a2565b91506142728261420b565b604082019050919050565b600060208201905081810360008301526142968161425a565b9050919050565b60006142a8826137b5565b91506142b3836137b5565b9250827fffffffffffffffffffffffffffffffffffffffffffffffffffffffffffffffff038211156142e8576142e7613e8e565b5b828201905092915050565b7f536166654d6174683a206164646974696f6e206f766572666c6f770000000000600082015250565b6000614329601b836136a2565b9150614334826142f3565b602082019050919050565b600060208201905081810360008301526143588161431c565b9050919050565b7f4e487b7100000000000000000000000000000000000000000000000000000000600052601260045260246000fd5b6000614399826137b5565b91506143a4836137b5565b9250826143b4576143b361435f565b5b828204905092915050565b7f536166654d6174683a206d756c7469706c69636174696f6e206f766572666c6f60008201527f7700000000000000000000000000000000000000000000000000000000000000602082015250565b600061441b6021836136a2565b9150614426826143bf565b604082019050919050565b6000602082019050818103600083015261444a8161440e565b905091905056fe544f4b454e32303a2064656372656173656420616c6c6f77616e63652062656c6f77207a65726f544f4b454e32303a207472616e7366657220616d6f756e74206578636565647320616c6c6f77616e6365a26469706673582212200738471e00872476cc935f0858e7460a91a6998fc7e37fb8c2f9ca25b52f12dc64736f6c634300080c0033",
  "immutableReferences": {},
  "source": "/**\r\n *Submitted for verification at BscScan.com on 2021-06-03\r\n*/\r\n\r\n// SPDX-License-Identifier: MIT\r\n\r\n//ANDROMEDA Smart Contract\r\n\r\npragma solidity ^0.8.2;\r\n\r\n\r\nabstract contract Context {\r\n    function _msgSender() internal view virtual returns (address payable) {\r\n        return payable(msg.sender);\r\n    }\r\n\r\n    function _msgData() internal view virtual returns (bytes memory) {\r\n        this; // silence state mutability warning without generating bytecode - see https://github.com/ethereum/solidity/issues/2691\r\n        return msg.data;\r\n    }\r\n}\r\n\r\n/**\r\n * @dev Interface of the BEP20 standard as defined in the EIP.\r\n */\r\ninterface IBEP20 {\r\n    /**\r\n     * @dev Returns the amount of tokens in existence.\r\n     */\r\n    function totalSupply() external view returns (uint256);\r\n\r\n    /**\r\n     * @dev Returns the amount of tokens owned by `account`.\r\n     */\r\n    function balanceOf(address account) external view returns (uint256);\r\n\r\n    /**\r\n     * @dev Moves `amount` tokens from the caller's account to `recipient`.\r\n     *\r\n     * Returns a boolean value indicating whether the operation succeeded.\r\n     *\r\n     * Emits a {Transfer} event.\r\n     */\r\n    function transfer(address recipient, uint256 amount) external returns (bool);\r\n\r\n    /**\r\n     * @dev Returns the remaining number of tokens that `spender` will be\r\n     * allowed to spend on behalf of `owner` through {transferFrom}. This is\r\n     * zero by default.\r\n     *\r\n     * This value changes when {approve} or {transferFrom} are called.\r\n     */\r\n    function allowance(address owner, address spender) external view returns (uint256);\r\n\r\n    /**\r\n     * @dev Sets `amount` as the allowance of `spender` over the caller's tokens.\r\n     *\r\n     * Returns a boolean value indicating whether the operation succeeded.\r\n     *\r\n     * IMPORTANT: Beware that changing an allowance with this method brings the risk\r\n     * that someone may use both the old and the new allowance by unfortunate\r\n     * transaction ordering. One possible solution to mitigate this race\r\n     * condition is to first reduce the spender's allowance to 0 and set the\r\n     * desired value afterwards:\r\n     * https://github.com/ethereum/EIPs/issues/20#issuecomment-263524729\r\n     *\r\n     * Emits an {Approval} event.\r\n     */\r\n    function approve(address spender, uint256 amount) external returns (bool);\r\n\r\n    /**\r\n     * @dev Moves `amount` tokens from `sender` to `recipient` using the\r\n     * allowance mechanism. `amount` is then deducted from the caller's\r\n     * allowance.\r\n     *\r\n     * Returns a boolean value indicating whether the operation succeeded.\r\n     *\r\n     * Emits a {Transfer} event.\r\n     */\r\n    function transferFrom(address sender, address recipient, uint256 amount) external returns (bool);\r\n\r\n    /**\r\n     * @dev Emitted when `value` tokens are moved from one account (`from`) to\r\n     * another (`to`).\r\n     *\r\n     * Note that `value` may be zero.\r\n     */\r\n    event Transfer(address indexed from, address indexed to, uint256 value);\r\n\r\n    /**\r\n     * @dev Emitted when the allowance of a `spender` for an `owner` is set by\r\n     * a call to {approve}. `value` is the new allowance.\r\n     */\r\n    event Approval(address indexed owner, address indexed spender, uint256 value);\r\n}\r\n\r\n/**\r\n * @dev Wrappers over Solidity's arithmetic operations with added overflow\r\n * checks.\r\n *\r\n * Arithmetic operations in Solidity wrap on overflow. This can easily result\r\n * in bugs, because programmers usually assume that an overflow raises an\r\n * error, which is the standard behavior in high level programming languages.\r\n * `SafeMath` restores this intuition by reverting the transaction when an\r\n * operation overflows.\r\n *\r\n * Using this library instead of the unchecked operations eliminates an entire\r\n * class of bugs, so it's recommended to use it always.\r\n */\r\nlibrary SafeMath {\r\n    /**\r\n     * @dev Returns the addition of two unsigned integers, reverting on\r\n     * overflow.\r\n     *\r\n     * Counterpart to Solidity's `+` operator.\r\n     *\r\n     * Requirements:\r\n     *\r\n     * - Addition cannot overflow.\r\n     */\r\n    function add(uint256 a, uint256 b) internal pure returns (uint256) {\r\n        uint256 c = a + b;\r\n        require(c >= a, \"SafeMath: addition overflow\");\r\n\r\n        return c;\r\n    }\r\n\r\n    /**\r\n     * @dev Returns the subtraction of two unsigned integers, reverting on\r\n     * overflow (when the result is negative).\r\n     *\r\n     * Counterpart to Solidity's `-` operator.\r\n     *\r\n     * Requirements:\r\n     *\r\n     * - Subtraction cannot overflow.\r\n     */\r\n    function sub(uint256 a, uint256 b) internal pure returns (uint256) {\r\n        return sub(a, b, \"SafeMath: subtraction overflow\");\r\n    }\r\n\r\n    /**\r\n     * @dev Returns the subtraction of two unsigned integers, reverting with custom message on\r\n     * overflow (when the result is negative).\r\n     *\r\n     * Counterpart to Solidity's `-` operator.\r\n     *\r\n     * Requirements:\r\n     *\r\n     * - Subtraction cannot overflow.\r\n     */\r\n    function sub(uint256 a, uint256 b, string memory errorMessage) internal pure returns (uint256) {\r\n        require(b <= a, errorMessage);\r\n        uint256 c = a - b;\r\n\r\n        return c;\r\n    }\r\n\r\n    /**\r\n     * @dev Returns the multiplication of two unsigned integers, reverting on\r\n     * overflow.\r\n     *\r\n     * Counterpart to Solidity's `*` operator.\r\n     *\r\n     * Requirements:\r\n     *\r\n     * - Multiplication cannot overflow.\r\n     */\r\n    function mul(uint256 a, uint256 b) internal pure returns (uint256) {\r\n        // Gas optimization: this is cheaper than requiring 'a' not being zero, but the\r\n        // benefit is lost if 'b' is also tested.\r\n        // See: https://github.com/OpenZeppelin/openzeppelin-contracts/pull/522\r\n        if (a == 0) {\r\n            return 0;\r\n        }\r\n\r\n        uint256 c = a * b;\r\n        require(c / a == b, \"SafeMath: multiplication overflow\");\r\n\r\n        return c;\r\n    }\r\n\r\n    /**\r\n     * @dev Returns the integer division of two unsigned integers. Reverts on\r\n     * division by zero. The result is rounded towards zero.\r\n     *\r\n     * Counterpart to Solidity's `/` operator. Note: this function uses a\r\n     * `revert` opcode (which leaves remaining gas untouched) while Solidity\r\n     * uses an invalid opcode to revert (consuming all remaining gas).\r\n     *\r\n     * Requirements:\r\n     *\r\n     * - The divisor cannot be zero.\r\n     */\r\n    function div(uint256 a, uint256 b) internal pure returns (uint256) {\r\n        return div(a, b, \"SafeMath: division by zero\");\r\n    }\r\n\r\n    /**\r\n     * @dev Returns the integer division of two unsigned integers. Reverts with custom message on\r\n     * division by zero. The result is rounded towards zero.\r\n     *\r\n     * Counterpart to Solidity's `/` operator. Note: this function uses a\r\n     * `revert` opcode (which leaves remaining gas untouched) while Solidity\r\n     * uses an invalid opcode to revert (consuming all remaining gas).\r\n     *\r\n     * Requirements:\r\n     *\r\n     * - The divisor cannot be zero.\r\n     */\r\n    function div(uint256 a, uint256 b, string memory errorMessage) internal pure returns (uint256) {\r\n        require(b > 0, errorMessage);\r\n        uint256 c = a / b;\r\n        // assert(a == b * c + a % b); // There is no case in which this doesn't hold\r\n\r\n        return c;\r\n    }\r\n\r\n    /**\r\n     * @dev Returns the remainder of dividing two unsigned integers. (unsigned integer modulo),\r\n     * Reverts when dividing by zero.\r\n     *\r\n     * Counterpart to Solidity's `%` operator. This function uses a `revert`\r\n     * opcode (which leaves remaining gas untouched) while Solidity uses an\r\n     * invalid opcode to revert (consuming all remaining gas).\r\n     *\r\n     * Requirements:\r\n     *\r\n     * - The divisor cannot be zero.\r\n     */\r\n    function mod(uint256 a, uint256 b) internal pure returns (uint256) {\r\n        return mod(a, b, \"SafeMath: modulo by zero\");\r\n    }\r\n\r\n    /**\r\n     * @dev Returns the remainder of dividing two unsigned integers. (unsigned integer modulo),\r\n     * Reverts with custom message when dividing by zero.\r\n     *\r\n     * Counterpart to Solidity's `%` operator. This function uses a `revert`\r\n     * opcode (which leaves remaining gas untouched) while Solidity uses an\r\n     * invalid opcode to revert (consuming all remaining gas).\r\n     *\r\n     * Requirements:\r\n     *\r\n     * - The divisor cannot be zero.\r\n     */\r\n    function mod(uint256 a, uint256 b, string memory errorMessage) internal pure returns (uint256) {\r\n        require(b != 0, errorMessage);\r\n        return a % b;\r\n    }\r\n}\r\n\r\n/**\r\n * @dev Collection of functions related to the address type\r\n */\r\nlibrary Address {\r\n    /**\r\n     * @dev Returns true if `account` is a contract.\r\n     *\r\n     * [IMPORTANT]\r\n     * ====\r\n     * It is unsafe to assume that an address for which this function returns\r\n     * false is an externally-owned account (EOA) and not a contract.\r\n     *\r\n     * Among others, `isContract` will return false for the following\r\n     * types of addresses:\r\n     *\r\n     *  - an externally-owned account\r\n     *  - a contract in construction\r\n     *  - an address where a contract will be created\r\n     *  - an address where a contract lived, but was destroyed\r\n     * ====\r\n     */\r\n    function isContract(address account) internal view returns (bool) {\r\n        // According to EIP-1052, 0x0 is the value returned for not-yet created accounts\r\n        // and 0xc5d2460186f7233c927e7db2dcc703c0e500b653ca82273b7bfad8045d85a470 is returned\r\n        // for accounts without code, i.e. `keccak256('')`\r\n        bytes32 codehash;\r\n        bytes32 accountHash = 0xc5d2460186f7233c927e7db2dcc703c0e500b653ca82273b7bfad8045d85a470;\r\n        // solhint-disable-next-line no-inline-assembly\r\n        assembly { codehash := extcodehash(account) }\r\n        return (codehash != accountHash && codehash != 0x0);\r\n    }\r\n\r\n    /**\r\n     * @dev Replacement for Solidity's `transfer`: sends `amount` wei to\r\n     * `recipient`, forwarding all available gas and reverting on errors.\r\n     *\r\n     * https://eips.ethereum.org/EIPS/eip-1884[EIP1884] increases the gas cost\r\n     * of certain opcodes, possibly making contracts go over the 2300 gas limit\r\n     * imposed by `transfer`, making them unable to receive funds via\r\n     * `transfer`. {sendValue} removes this limitation.\r\n     *\r\n     * https://diligence.consensys.net/posts/2019/09/stop-using-soliditys-transfer-now/[Learn more].\r\n     *\r\n     * IMPORTANT: because control is transferred to `recipient`, care must be\r\n     * taken to not create reentrancy vulnerabilities. Consider using\r\n     * {ReentrancyGuard} or the\r\n     * https://solidity.readthedocs.io/en/v0.5.11/security-considerations.html#use-the-checks-effects-interactions-pattern[checks-effects-interactions pattern].\r\n     */\r\n    function sendValue(address payable recipient, uint256 amount) internal {\r\n        require(address(this).balance >= amount, \"Address: insufficient balance\");\r\n\r\n        // solhint-disable-next-line avoid-low-level-calls, avoid-call-value\r\n        (bool success, ) = recipient.call{ value: amount }(\"\");\r\n        require(success, \"Address: unable to send value, recipient may have reverted\");\r\n    }\r\n\r\n    /**\r\n     * @dev Performs a Solidity function call using a low level `call`. A\r\n     * plain`call` is an unsafe replacement for a function call: use this\r\n     * function instead.\r\n     *\r\n     * If `target` reverts with a revert reason, it is bubbled up by this\r\n     * function (like regular Solidity function calls).\r\n     *\r\n     * Returns the raw returned data. To convert to the expected return value,\r\n     * use https://solidity.readthedocs.io/en/latest/units-and-global-variables.html?highlight=abi.decode#abi-encoding-and-decoding-functions[`abi.decode`].\r\n     *\r\n     * Requirements:\r\n     *\r\n     * - `target` must be a contract.\r\n     * - calling `target` with `data` must not revert.\r\n     *\r\n     * _Available since v3.1._\r\n     */\r\n    function functionCall(address target, bytes memory data) internal returns (bytes memory) {\r\n      return functionCall(target, data, \"Address: low-level call failed\");\r\n    }\r\n\r\n    /**\r\n     * @dev Same as {xref-Address-functionCall-address-bytes-}[`functionCall`], but with\r\n     * `errorMessage` as a fallback revert reason when `target` reverts.\r\n     *\r\n     * _Available since v3.1._\r\n     */\r\n    function functionCall(address target, bytes memory data, string memory errorMessage) internal returns (bytes memory) {\r\n        return _functionCallWithValue(target, data, 0, errorMessage);\r\n    }\r\n\r\n    /**\r\n     * @dev Same as {xref-Address-functionCall-address-bytes-}[`functionCall`],\r\n     * but also transferring `value` wei to `target`.\r\n     *\r\n     * Requirements:\r\n     *\r\n     * - the calling contract must have an ETH balance of at least `value`.\r\n     * - the called Solidity function must be `payable`.\r\n     *\r\n     * _Available since v3.1._\r\n     */\r\n    function functionCallWithValue(address target, bytes memory data, uint256 value) internal returns (bytes memory) {\r\n        return functionCallWithValue(target, data, value, \"Address: low-level call with value failed\");\r\n    }\r\n\r\n    /**\r\n     * @dev Same as {xref-Address-functionCallWithValue-address-bytes-uint256-}[`functionCallWithValue`], but\r\n     * with `errorMessage` as a fallback revert reason when `target` reverts.\r\n     *\r\n     * _Available since v3.1._\r\n     */\r\n    function functionCallWithValue(address target, bytes memory data, uint256 value, string memory errorMessage) internal returns (bytes memory) {\r\n        require(address(this).balance >= value, \"Address: insufficient balance for call\");\r\n        return _functionCallWithValue(target, data, value, errorMessage);\r\n    }\r\n\r\n    function _functionCallWithValue(address target, bytes memory data, uint256 weiValue, string memory errorMessage) private returns (bytes memory) {\r\n        require(isContract(target), \"Address: call to non-contract\");\r\n\r\n        // solhint-disable-next-line avoid-low-level-calls\r\n        (bool success, bytes memory returndata) = target.call{ value: weiValue }(data);\r\n        if (success) {\r\n            return returndata;\r\n        } else {\r\n            // Look for revert reason and bubble it up if present\r\n            if (returndata.length > 0) {\r\n                // The easiest way to bubble the revert reason is using memory via assembly\r\n\r\n                // solhint-disable-next-line no-inline-assembly\r\n                assembly {\r\n                    let returndata_size := mload(returndata)\r\n                    revert(add(32, returndata), returndata_size)\r\n                }\r\n            } else {\r\n                revert(errorMessage);\r\n            }\r\n        }\r\n    }\r\n}\r\n\r\n/**\r\n * @dev Contract module which provides a basic access control mechanism, where\r\n * there is an account (an owner) that can be granted exclusive access to\r\n * specific functions.\r\n *\r\n * By default, the owner account will be the one that deploys the contract. This\r\n * can later be changed with {transferOwnership}.\r\n *\r\n * This module is used through inheritance. It will make available the modifier\r\n * `onlyOwner`, which can be applied to your functions to restrict their use to\r\n * the owner.\r\n */\r\ncontract Ownable is Context {\r\n    address public _owner;\r\n\r\n    event OwnershipTransferred(address indexed previousOwner, address indexed newOwner);\r\n\r\n\r\n    /**\r\n     * @dev Returns the address of the current owner.\r\n     */\r\n    function owner() public view returns (address) {\r\n        return _owner;\r\n    }\r\n\r\n    /**\r\n     * @dev Throws if called by any account other than the owner.\r\n     */\r\n    modifier onlyOwner() {\r\n        require(_owner == _msgSender(), \"Ownable: caller is not the owner\");\r\n        _;\r\n    }\r\n\r\n    /**\r\n     * @dev Leaves the contract without owner. It will not be possible to call\r\n     * `onlyOwner` functions anymore. Can only be called by the current owner.\r\n     *\r\n     * NOTE: Renouncing ownership will leave the contract without an owner,\r\n     * thereby removing any functionality that is only available to the owner.\r\n     */\r\n    function renounceOwnership() public virtual onlyOwner {\r\n        emit OwnershipTransferred(_owner, address(0));\r\n        _owner = address(0);\r\n    }\r\n\r\n    /**\r\n     * @dev Transfers ownership of the contract to a new account (`newOwner`).\r\n     * Can only be called by the current owner.\r\n     */\r\n    function transferOwnership(address newOwner) public virtual onlyOwner {\r\n        require(newOwner != address(0), \"Ownable: new owner is the zero address\");\r\n        emit OwnershipTransferred(_owner, newOwner);\r\n        _owner = newOwner;\r\n    }\r\n}\r\n\r\ncontract ANDROMEDA is Context, IBEP20, Ownable {\r\n    using SafeMath for uint256;\r\n    using Address for address;\r\n\r\n    mapping (address => uint256) private _rOwned;\r\n    mapping (address => uint256) private _tOwned;\r\n    mapping (address => mapping (address => uint256)) private _allowances;\r\n\r\n    mapping (address => bool) private _isExcluded;\r\n    address[] private _excluded;\r\n    \r\n    string  private _NAME;\r\n    string  private _SYMBOL;\r\n    uint256   private _DECIMALS;\r\n\taddress public FeeAddress;\r\n   \r\n    uint256 private _MAX = ~uint256(0);\r\n    uint256 private _DECIMALFACTOR;\r\n    uint256 private _GRANULARITY = 100;\r\n    \r\n    uint256 private _tTotal;\r\n    uint256 private _rTotal;\r\n    \r\n    uint256 private _tFeeTotal;\r\n    uint256 private _tBurnTotal;\r\n    uint256 private _tCharityTotal;\r\n    \r\n    uint256 public     _TAX_FEE;\r\n    uint256 public    _BURN_FEE;\r\n    uint256 public _CHARITY_FEE;\r\n\r\n    // Track original fees to bypass fees for charity account\r\n    uint256 private ORIG_TAX_FEE;\r\n    uint256 private ORIG_BURN_FEE;\r\n    uint256 private ORIG_CHARITY_FEE;\r\n\r\n    constructor (string memory _name, string memory _symbol, uint256 _decimals, uint256 _supply, uint256 _txFee,uint256 _burnFee,uint256 _charityFee,address _FeeAddress,address tokenOwner)  {\r\n\t\t_NAME = _name;\r\n\t\t_SYMBOL = _symbol;\r\n\t\t_DECIMALS = _decimals;\r\n\t\t_DECIMALFACTOR = 10 ** _DECIMALS;\r\n\t\t_tTotal =_supply * _DECIMALFACTOR;\r\n\t\t_rTotal = (_MAX - (_MAX % _tTotal));\r\n\t\t_TAX_FEE = _txFee* 100; \r\n        _BURN_FEE = _burnFee * 100;\r\n\t\t_CHARITY_FEE = _charityFee* 100;\r\n\t\tORIG_TAX_FEE = _TAX_FEE;\r\n\t\tORIG_BURN_FEE = _BURN_FEE;\r\n\t\tORIG_CHARITY_FEE = _CHARITY_FEE;\r\n\t\tFeeAddress = _FeeAddress;\r\n\t\t_owner = tokenOwner;\r\n        _rOwned[tokenOwner] = _rTotal;\r\n        emit Transfer(address(0),tokenOwner, _tTotal);\r\n    }\r\n\r\n    function name() public view returns (string memory) {\r\n        return _NAME;\r\n    }\r\n\r\n    function symbol() public view returns (string memory) {\r\n        return _SYMBOL;\r\n    }\r\n\r\n    function decimals() public view returns (uint8) {\r\n        return uint8(_DECIMALS);\r\n    }\r\n\r\n    function totalSupply() public view override returns (uint256) {\r\n        return _tTotal;\r\n    }\r\n\r\n    function balanceOf(address account) public view override returns (uint256) {\r\n        if (_isExcluded[account]) return _tOwned[account];\r\n        return tokenFromReflection(_rOwned[account]);\r\n    }\r\n\r\n    function transfer(address recipient, uint256 amount) public override returns (bool) {\r\n        _transfer(_msgSender(), recipient, amount);\r\n        return true;\r\n    }\r\n\r\n    function allowance(address owner, address spender) public view override returns (uint256) {\r\n        return _allowances[owner][spender];\r\n    }\r\n\r\n    function approve(address spender, uint256 amount) public override returns (bool) {\r\n        _approve(_msgSender(), spender, amount);\r\n        return true;\r\n    }\r\n\r\n    function transferFrom(address sender, address recipient, uint256 amount) public override returns (bool) {\r\n        _transfer(sender, recipient, amount);\r\n        _approve(sender, _msgSender(), _allowances[sender][_msgSender()].sub(amount, \"TOKEN20: transfer amount exceeds allowance\"));\r\n        return true;\r\n    }\r\n\r\n    function increaseAllowance(address spender, uint256 addedValue) public virtual returns (bool) {\r\n        _approve(_msgSender(), spender, _allowances[_msgSender()][spender].add(addedValue));\r\n        return true;\r\n    }\r\n\r\n    function decreaseAllowance(address spender, uint256 subtractedValue) public virtual returns (bool) {\r\n        _approve(_msgSender(), spender, _allowances[_msgSender()][spender].sub(subtractedValue, \"TOKEN20: decreased allowance below zero\"));\r\n        return true;\r\n    }\r\n\r\n    function isExcluded(address account) public view returns (bool) {\r\n        return _isExcluded[account];\r\n    }\r\n    \r\n\r\n    function totalFees() public view returns (uint256) {\r\n        return _tFeeTotal;\r\n    }\r\n    \r\n    function totalBurn() public view returns (uint256) {\r\n        return _tBurnTotal;\r\n    }\r\n    \r\n    function totalCharity() public view returns (uint256) {\r\n        return _tCharityTotal;\r\n    }\r\n\r\n    function deliver(uint256 tAmount) public {\r\n        address sender = _msgSender();\r\n        require(!_isExcluded[sender], \"Excluded addresses cannot call this function\");\r\n        (uint256 rAmount,,,,,,) = _getValues(tAmount);\r\n        _rOwned[sender] = _rOwned[sender].sub(rAmount);\r\n        _rTotal = _rTotal.sub(rAmount);\r\n        _tFeeTotal = _tFeeTotal.add(tAmount);\r\n    }\r\n\r\n    function reflectionFromToken(uint256 tAmount, bool deductTransferFee) public view returns(uint256) {\r\n        require(tAmount <= _tTotal, \"Amount must be less than supply\");\r\n        if (!deductTransferFee) {\r\n            (uint256 rAmount,,,,,,) = _getValues(tAmount);\r\n            return rAmount;\r\n        } else {\r\n            (,uint256 rTransferAmount,,,,,) = _getValues(tAmount);\r\n            return rTransferAmount;\r\n        }\r\n    }\r\n\r\n    function tokenFromReflection(uint256 rAmount) public view returns(uint256) {\r\n        require(rAmount <= _rTotal, \"Amount must be less than total reflections\");\r\n        uint256 currentRate =  _getRate();\r\n        return rAmount.div(currentRate);\r\n    }\r\n\r\n    function excludeAccount(address account) external onlyOwner() {\r\n        require(!_isExcluded[account], \"Account is already excluded\");\r\n        if(_rOwned[account] > 0) {\r\n            _tOwned[account] = tokenFromReflection(_rOwned[account]);\r\n        }\r\n        _isExcluded[account] = true;\r\n        _excluded.push(account);\r\n    }\r\n\r\n    function includeAccount(address account) external onlyOwner() {\r\n        require(_isExcluded[account], \"Account is already included\");\r\n        for (uint256 i = 0; i < _excluded.length; i++) {\r\n            if (_excluded[i] == account) {\r\n                _excluded[i] = _excluded[_excluded.length - 1];\r\n                _tOwned[account] = 0;\r\n                _isExcluded[account] = false;\r\n                _excluded.pop();\r\n                break;\r\n            }\r\n        }\r\n    }\r\n\r\n    function setAsCharityAccount(address account) external onlyOwner() {\r\n\t\tFeeAddress = account;\r\n    }\r\n\r\n\t\r\n\tfunction updateFee(uint256 _txFee,uint256 _burnFee,uint256 _charityFee) onlyOwner() public{\r\n\t\trequire(_txFee < 100 && _burnFee < 100 && _charityFee < 100);\r\n        _TAX_FEE = _txFee* 100; \r\n        _BURN_FEE = _burnFee * 100;\r\n\t\t_CHARITY_FEE = _charityFee* 100;\r\n\t\tORIG_TAX_FEE = _TAX_FEE;\r\n\t\tORIG_BURN_FEE = _BURN_FEE;\r\n\t\tORIG_CHARITY_FEE = _CHARITY_FEE;\r\n\t}\r\n\t\r\n\r\n\r\n\r\n\r\n    function _approve(address owner, address spender, uint256 amount) private {\r\n        require(owner != address(0), \"TOKEN20: approve from the zero address\");\r\n        require(spender != address(0), \"TOKEN20: approve to the zero address\");\r\n\r\n        _allowances[owner][spender] = amount;\r\n        emit Approval(owner, spender, amount);\r\n    }\r\n\r\n    function _transfer(address sender, address recipient, uint256 amount) private {\r\n        require(sender != address(0), \"TOKEN20: transfer from the zero address\");\r\n        require(recipient != address(0), \"TOKEN20: transfer to the zero address\");\r\n        require(amount > 0, \"Transfer amount must be greater than zero\");\r\n\r\n        // Remove fees for transfers to and from charity account or to excluded account\r\n        bool takeFee = true;\r\n        if (FeeAddress == sender || FeeAddress == recipient || _isExcluded[recipient]) {\r\n            takeFee = false;\r\n        }\r\n\r\n        if (!takeFee) removeAllFee();\r\n        \r\n        \r\n        if (_isExcluded[sender] && !_isExcluded[recipient]) {\r\n            _transferFromExcluded(sender, recipient, amount);\r\n        } else if (!_isExcluded[sender] && _isExcluded[recipient]) {\r\n            _transferToExcluded(sender, recipient, amount);\r\n        } else if (!_isExcluded[sender] && !_isExcluded[recipient]) {\r\n            _transferStandard(sender, recipient, amount);\r\n        } else if (_isExcluded[sender] && _isExcluded[recipient]) {\r\n            _transferBothExcluded(sender, recipient, amount);\r\n        } else {\r\n            _transferStandard(sender, recipient, amount);\r\n        }\r\n\r\n        if (!takeFee) restoreAllFee();\r\n    }\r\n\r\n    function _transferStandard(address sender, address recipient, uint256 tAmount) private {\r\n        uint256 currentRate =  _getRate();\r\n        (uint256 rAmount, uint256 rTransferAmount, uint256 rFee, uint256 tTransferAmount, uint256 tFee, uint256 tBurn, uint256 tCharity) = _getValues(tAmount);\r\n        uint256 rBurn =  tBurn.mul(currentRate);\r\n        _standardTransferContent(sender, recipient, rAmount, rTransferAmount);\r\n        _sendToCharity(tCharity, sender);\r\n        _reflectFee(rFee, rBurn, tFee, tBurn, tCharity);\r\n        emit Transfer(sender, recipient, tTransferAmount);\r\n    }\r\n    \r\n    function _standardTransferContent(address sender, address recipient, uint256 rAmount, uint256 rTransferAmount) private {\r\n        _rOwned[sender] = _rOwned[sender].sub(rAmount);\r\n        _rOwned[recipient] = _rOwned[recipient].add(rTransferAmount);\r\n    }\r\n    \r\n    function _transferToExcluded(address sender, address recipient, uint256 tAmount) private {\r\n        uint256 currentRate =  _getRate();\r\n        (uint256 rAmount, uint256 rTransferAmount, uint256 rFee, uint256 tTransferAmount, uint256 tFee, uint256 tBurn, uint256 tCharity) = _getValues(tAmount);\r\n        uint256 rBurn =  tBurn.mul(currentRate);\r\n        _excludedFromTransferContent(sender, recipient, tTransferAmount, rAmount, rTransferAmount);        \r\n        _sendToCharity(tCharity, sender);\r\n        _reflectFee(rFee, rBurn, tFee, tBurn, tCharity);\r\n        emit Transfer(sender, recipient, tTransferAmount);\r\n    }\r\n    \r\n    function _excludedFromTransferContent(address sender, address recipient, uint256 tTransferAmount, uint256 rAmount, uint256 rTransferAmount) private {\r\n        _rOwned[sender] = _rOwned[sender].sub(rAmount);\r\n        _tOwned[recipient] = _tOwned[recipient].add(tTransferAmount);\r\n        _rOwned[recipient] = _rOwned[recipient].add(rTransferAmount);    \r\n    }\r\n    \r\n\r\n    function _transferFromExcluded(address sender, address recipient, uint256 tAmount) private {\r\n        uint256 currentRate =  _getRate();\r\n        (uint256 rAmount, uint256 rTransferAmount, uint256 rFee, uint256 tTransferAmount, uint256 tFee, uint256 tBurn, uint256 tCharity) = _getValues(tAmount);\r\n        uint256 rBurn =  tBurn.mul(currentRate);\r\n        _excludedToTransferContent(sender, recipient, tAmount, rAmount, rTransferAmount);\r\n        _sendToCharity(tCharity, sender);\r\n        _reflectFee(rFee, rBurn, tFee, tBurn, tCharity);\r\n        emit Transfer(sender, recipient, tTransferAmount);\r\n    }\r\n    \r\n    function _excludedToTransferContent(address sender, address recipient, uint256 tAmount, uint256 rAmount, uint256 rTransferAmount) private {\r\n        _tOwned[sender] = _tOwned[sender].sub(tAmount);\r\n        _rOwned[sender] = _rOwned[sender].sub(rAmount);\r\n        _rOwned[recipient] = _rOwned[recipient].add(rTransferAmount);  \r\n    }\r\n\r\n    function _transferBothExcluded(address sender, address recipient, uint256 tAmount) private {\r\n        uint256 currentRate =  _getRate();\r\n        (uint256 rAmount, uint256 rTransferAmount, uint256 rFee, uint256 tTransferAmount, uint256 tFee, uint256 tBurn, uint256 tCharity) = _getValues(tAmount);\r\n        uint256 rBurn =  tBurn.mul(currentRate);\r\n        _bothTransferContent(sender, recipient, tAmount, rAmount, tTransferAmount, rTransferAmount);  \r\n        _sendToCharity(tCharity, sender);\r\n        _reflectFee(rFee, rBurn, tFee, tBurn, tCharity);\r\n        emit Transfer(sender, recipient, tTransferAmount);\r\n    }\r\n    \r\n    function _bothTransferContent(address sender, address recipient, uint256 tAmount, uint256 rAmount, uint256 tTransferAmount, uint256 rTransferAmount) private {\r\n        _tOwned[sender] = _tOwned[sender].sub(tAmount);\r\n        _rOwned[sender] = _rOwned[sender].sub(rAmount);\r\n        _tOwned[recipient] = _tOwned[recipient].add(tTransferAmount);\r\n        _rOwned[recipient] = _rOwned[recipient].add(rTransferAmount);  \r\n    }\r\n\r\n    function _reflectFee(uint256 rFee, uint256 rBurn, uint256 tFee, uint256 tBurn, uint256 tCharity) private {\r\n        _rTotal = _rTotal.sub(rFee).sub(rBurn);\r\n        _tFeeTotal = _tFeeTotal.add(tFee);\r\n        _tBurnTotal = _tBurnTotal.add(tBurn);\r\n        _tCharityTotal = _tCharityTotal.add(tCharity);\r\n        _tTotal = _tTotal.sub(tBurn);\r\n\t\temit Transfer(address(this), address(0), tBurn);\r\n    }\r\n    \r\n\r\n    function _getValues(uint256 tAmount) private view returns (uint256, uint256, uint256, uint256, uint256, uint256, uint256) {\r\n        (uint256 tFee, uint256 tBurn, uint256 tCharity) = _getTBasics(tAmount, _TAX_FEE, _BURN_FEE, _CHARITY_FEE);\r\n        uint256 tTransferAmount = getTTransferAmount(tAmount, tFee, tBurn, tCharity);\r\n        uint256 currentRate =  _getRate();\r\n        (uint256 rAmount, uint256 rFee) = _getRBasics(tAmount, tFee, currentRate);\r\n        uint256 rTransferAmount = _getRTransferAmount(rAmount, rFee, tBurn, tCharity, currentRate);\r\n        return (rAmount, rTransferAmount, rFee, tTransferAmount, tFee, tBurn, tCharity);\r\n    }\r\n    \r\n    function _getTBasics(uint256 tAmount, uint256 taxFee, uint256 burnFee, uint256 charityFee) private view returns (uint256, uint256, uint256) {\r\n        uint256 tFee = ((tAmount.mul(taxFee)).div(_GRANULARITY)).div(100);\r\n        uint256 tBurn = ((tAmount.mul(burnFee)).div(_GRANULARITY)).div(100);\r\n        uint256 tCharity = ((tAmount.mul(charityFee)).div(_GRANULARITY)).div(100);\r\n        return (tFee, tBurn, tCharity);\r\n    }\r\n    \r\n    function getTTransferAmount(uint256 tAmount, uint256 tFee, uint256 tBurn, uint256 tCharity) private pure returns (uint256) {\r\n        return tAmount.sub(tFee).sub(tBurn).sub(tCharity);\r\n    }\r\n    \r\n    function _getRBasics(uint256 tAmount, uint256 tFee, uint256 currentRate) private pure returns (uint256, uint256) {\r\n        uint256 rAmount = tAmount.mul(currentRate);\r\n        uint256 rFee = tFee.mul(currentRate);\r\n        return (rAmount, rFee);\r\n    }\r\n    \r\n    function _getRTransferAmount(uint256 rAmount, uint256 rFee, uint256 tBurn, uint256 tCharity, uint256 currentRate) private pure returns (uint256) {\r\n        uint256 rBurn = tBurn.mul(currentRate);\r\n        uint256 rCharity = tCharity.mul(currentRate);\r\n        uint256 rTransferAmount = rAmount.sub(rFee).sub(rBurn).sub(rCharity);\r\n        return rTransferAmount;\r\n    }\r\n\r\n    function _getRate() private view returns(uint256) {\r\n        (uint256 rSupply, uint256 tSupply) = _getCurrentSupply();\r\n        return rSupply.div(tSupply);\r\n    }\r\n\r\n    function _getCurrentSupply() private view returns(uint256, uint256) {\r\n        uint256 rSupply = _rTotal;\r\n        uint256 tSupply = _tTotal;      \r\n        for (uint256 i = 0; i < _excluded.length; i++) {\r\n            if (_rOwned[_excluded[i]] > rSupply || _tOwned[_excluded[i]] > tSupply) return (_rTotal, _tTotal);\r\n            rSupply = rSupply.sub(_rOwned[_excluded[i]]);\r\n            tSupply = tSupply.sub(_tOwned[_excluded[i]]);\r\n        }\r\n        if (rSupply < _rTotal.div(_tTotal)) return (_rTotal, _tTotal);\r\n        return (rSupply, tSupply);\r\n    }\r\n\r\n    function _sendToCharity(uint256 tCharity, address sender) private {\r\n        uint256 currentRate = _getRate();\r\n        uint256 rCharity = tCharity.mul(currentRate);\r\n        _rOwned[FeeAddress] = _rOwned[FeeAddress].add(rCharity);\r\n        _tOwned[FeeAddress] = _tOwned[FeeAddress].add(tCharity);\r\n        emit Transfer(sender, FeeAddress, tCharity);\r\n    }\r\n\r\n    function removeAllFee() private {\r\n        if(_TAX_FEE == 0 && _BURN_FEE == 0 && _CHARITY_FEE == 0) return;\r\n        \r\n        ORIG_TAX_FEE = _TAX_FEE;\r\n        ORIG_BURN_FEE = _BURN_FEE;\r\n        ORIG_CHARITY_FEE = _CHARITY_FEE;\r\n        \r\n        _TAX_FEE = 0;\r\n        _BURN_FEE = 0;\r\n        _CHARITY_FEE = 0;\r\n    }\r\n    \r\n    function restoreAllFee() private {\r\n        _TAX_FEE = ORIG_TAX_FEE;\r\n        _BURN_FEE = ORIG_BURN_FEE;\r\n        _CHARITY_FEE = ORIG_CHARITY_FEE;\r\n    }\r\n    \r\n    function _getTaxFee() private view returns(uint256) {\r\n        return _TAX_FEE;\r\n    }\r\n\r\n\r\n}",
  "sourcePath": "/mnt/c/Users/guper/OneDrive/Documents/Programming/Solidity/Andromeda/andromeda-smartcontract/contracts/Andromeda.sol",
  "compiler": {
    "name": "solc",
    "version": "0.8.12+commit.f00d7308.Emscripten.clang"
  },
  "schemaVersion": "3.4.6",
  "updatedAt": "2022-05-06T02:40:28.340Z",
  "devdoc": {
    "kind": "dev",
    "methods": {
      "allowance(address,address)": {
        "details": "Returns the remaining number of tokens that `spender` will be allowed to spend on behalf of `owner` through {transferFrom}. This is zero by default. This value changes when {approve} or {transferFrom} are called."
      },
      "approve(address,uint256)": {
        "details": "Sets `amount` as the allowance of `spender` over the caller's tokens. Returns a boolean value indicating whether the operation succeeded. IMPORTANT: Beware that changing an allowance with this method brings the risk that someone may use both the old and the new allowance by unfortunate transaction ordering. One possible solution to mitigate this race condition is to first reduce the spender's allowance to 0 and set the desired value afterwards: https://github.com/ethereum/EIPs/issues/20#issuecomment-263524729 Emits an {Approval} event."
      },
      "balanceOf(address)": {
        "details": "Returns the amount of tokens owned by `account`."
      },
      "owner()": {
        "details": "Returns the address of the current owner."
      },
      "renounceOwnership()": {
        "details": "Leaves the contract without owner. It will not be possible to call `onlyOwner` functions anymore. Can only be called by the current owner. NOTE: Renouncing ownership will leave the contract without an owner, thereby removing any functionality that is only available to the owner."
      },
      "totalSupply()": {
        "details": "Returns the amount of tokens in existence."
      },
      "transfer(address,uint256)": {
        "details": "Moves `amount` tokens from the caller's account to `recipient`. Returns a boolean value indicating whether the operation succeeded. Emits a {Transfer} event."
      },
      "transferFrom(address,address,uint256)": {
        "details": "Moves `amount` tokens from `sender` to `recipient` using the allowance mechanism. `amount` is then deducted from the caller's allowance. Returns a boolean value indicating whether the operation succeeded. Emits a {Transfer} event."
      },
      "transferOwnership(address)": {
        "details": "Transfers ownership of the contract to a new account (`newOwner`). Can only be called by the current owner."
      }
    },
    "version": 1
  },
  "userdoc": {
    "kind": "user",
    "methods": {},
    "version": 1
  }
}